:10000000EDC200001CC300001AC3000018C30000AA
:1000100016C3000014C3000012C3000010C3000088
:100020000EC300000CC300000AC3000008C3000098
:1000300006C3000004C3000002C3000000C30000A8
:10004000FEC200000C946822FAC20000F8C2000050
:10005000F6C20000F4C20000F2C200000C94F51ECB
:10006000EEC200000C94121D0C94E91CE8C20000C2
:10007000E6C20000E4C20000E2C20000E0C20000EC
:100080000C943B22DCC20000DAC20000D8C200009F
:100090000C94C01C0C94971CD2C200000C943F1FFF
:1000A000CEC20000CCC200000C940E22C8C20000D8
:1000B000C6C20000C4C20000C2C200000C94E1210C
:1000C000BEC20000BCC20000BAC20000B8C200003C
:1000D000B6C20000B4C20000B2C20000B0C200004C
:1000E000AEC2000007100C102A1034103E10481049
:1000F00052105C106610CD1BD01BBF1BC31BC91B4D
:10010000071CD41BD81BDE1BE21BE61BEC1BF01BE1
:10011000F41B071CFA1BFE1B021C4F202D20456EF2
:1001200074657220536572766F206F6666736574AE
:10013000206D6F6465004465627567206973206F88
:100140006666004465627567206973206F6E003CC7
:10015000656F6C3E0053657269616C20436D64206D
:100160004C696E653A00432D436F6E74726F6C205C
:1001700048657861706F64204D6F6E69746F7200AE
:10018000EEFDEEFDEEFDEEFDEEFDEEFD84038403DF
:100190008403840384038403E6FBE6FBE6FBE6FBBF
:1001A000E6FBE6FBEE02EE02EE02EE02EE02EE02ED
:1001B000D4FED4FED4FED4FED4FED4FE2C012C01F9
:1001C0002C012C012C012C015D000000A3FF5D001F
:1001D0000000A3FF39006E00390039006E003900BD
:1001E00023002300230023002300230000005700E6
:1001F000AE0005015C01B4010B026202B9021003FA
:100200006703BE0315046C04C20419056F05C60517
:100210001C067206C8061E077407C9071F08740863
:10022000C9081E097309C7091C0A700AC40A180BF9
:100230006B0BBF0B120C650CB70C0A0D5C0DAE0DF1
:10024000FF0D510EA20EF20E430F930FE30F32106B
:100250008210D1101F116D11BB1109125612A31279
:10026000F0123C138713D3131E146814B314FC1438
:1002700046158F15D71520166716AF16F5163C17BD
:100280008217C7170C1851189518D8181B195E1922
:10029000A019E219231A631AA31AE31A221B611B7D
:1002A0009F1BDC1B191C551C911CCC1C071D411DE0
:1002B0007B1DB41DEC1D241E5B1E921EC81EFD1E60
:1002C000321F661F9A1FCD1FFF1F31206220922010
:1002D000C220F12020214E217B21A821D421FF2101
:1002E0002A2254227D22A622CE22F5221B2341233C
:1002F00067238B23AF23D223F523162437245824D6
:1003000077249624B424D224EF240B2526254125D6
:100310005B2574258C25A425BB25D125E625FB2549
:100320000F26222635264726582668267826862632
:100330009426A226AE26BA26C526CF26D926E126A1
:10034000E926F126F726FD260227062709270C278E
:100350000E270F271027FFFEFCFBFAF9F7F6F5F33F
:10036000F2F1F0EEEDECEAE9E8E7E5E4E3E1E0DF05
:10037000DDDCDBD9D8D7D6D4D3D2D0CFCECCCBC945
:10038000C8C7C5C4C3C1C0BEBDBCBAB9B7B6B5B392
:10039000B2B0AFADACAAA9A7A6A4A3A1A09E9D9BF5
:1003A0009A9896959392908E8D8B89878684828079
:1003B0007F7D7B79777573716F6D6B69676562603F
:1003C0005E5C595754514F4C494949484848474742
:1003D00047464646464545454444444343434242D6
:1003E000424141414040403F3F3F3E3E3E3D3D3D1A
:1003F0003C3C3B3B3B3A3A3A393939383837373766
:1004000036363535353434333333323231313030BA
:100410002F2F2F2E2E2D2D2C2C2B2B2A2A2929281D
:1004200028272726252524242322222121201F1F97
:100430001E1D1C1C1B1A191817171717161616162F
:100440001515151514141413131313121212111178
:1004500011111010100F0F0F0E0E0D0D0D0C0C0BB7
:100460000B0A0A09090807060605030064000000D4
:100470009CFF640000009CFFD8FFC9FFD8FF280044
:10048000370028007575757575754B4B4B4B4B4B8D
:100490003333333333333EFE0000C2013EFE0000EF
:1004A000C2016E7D7D1432870000210024002700E8
:1004B0002A002D0030003300010100000401070173
:1004C0000A0100002200250028002B002E00310028
:1004D000340002010000050108010B0100002000AA
:1004E0002300260029002C002F003200000100000C
:1004F00003010601090105050505070508080808A7
:10050000020202020A0A08080404040401010101AB
:1005100001010101030303030303030304070707A6
:100520000C0C0C0C0C0C0C0C02020202060606064B
:10053000060606060B0B0B0B0B0B0B0B0102102018
:100540002008081020401020408002010201080409
:10055000020101020408102040808040201008049D
:1005600002018004020180402010080402010804F6
:10057000020101020408102040800102040810203A
:10058000408000000A0B02090C0D0E08070304014D
:10059000000000000000000000000000000000005B
:1005A0000000000000000000000000000000121128
:1005B000100000000000000000000000000000002B
:1005C00000000000000000000210081B2328051195
:1005D000071A22250C0306192124F63311241FBE05
:1005E000CFEFD1E2DEBFCDBF00E00CBF14E0A0E052
:1005F000B2E0EEE7FDE600E00BBF02C007900D920F
:10060000A631B107D9F729E0A6E1B4E001C01D92F7
:10061000A838B207E1F712E0CEEED2E000E006C063
:1006200021970109802FFE010E94A536CD3ED107FA
:1006300080E00807A9F70E941A260C94BD36E0CC8A
:100640000895CF9397FF05C0919581959109C1E0D9
:1006500001C0C0E0813127E2920714F080E197E207
:10066000883223E2920744F46FE470E00E949236ED
:10067000FB01EA5AFC4F18C0FC01E852F342E4388F
:1006800023E0F20750F493E0F595E7959A95E1F7AA
:10069000E853FC4FE4912E2F08C0FC01EC5AF642BF
:1006A000F595E795E75CFB4F249130E0A8E6B2E0D2
:1006B0000E9409352AE030E040E050E00E94BB345F
:1006C0003093790520937805CC2361F0209178054B
:1006D0003091790588EB9AE7821B930B909379050B
:1006E000809378056091780570917905072E000C4C
:1006F000880B990BCF9108958F929F92AF92BF92E2
:10070000CF92DF92EF92FF920F931F93CF93DF93DD
:10071000EB014C01092E000CAA08BB089C01DC016E
:100720000E94AD366B017C019E01DE010E94AD3658
:10073000A7019601260F371F481F591FA0E1B7E2F6
:100740000E94D734AB01BC0180E090E0A0E0B0E4AF
:10075000481759076A077B0740F4F2E0B695A7955A
:1007600097958795FA95D1F7F3CFC12CD12C7601C7
:100770000097A105B10549F18C019D010C0D1D1DCE
:100780002E1D3F1D401751076207730790F04C194B
:100790005D096E097F09481B590B6A0B7B0B8C01A5
:1007A0009D01000F111F221F331FC00ED11EE21E1C
:1007B000F31EF694E794D794C79432E0B695A795C4
:1007C000979587953A95D1F7D3CFC0927A05D09275
:1007D0007B05E0927C05F0927D05A501940160E423
:1007E00072E48FE090E00E946336A70196010E94B8
:1007F000BB34C90126DF8091780590917905D7FF38
:1008000003C091958195910990937F0580937E0512
:1008100080917E0590917F05DF91CF911F910F917F
:10082000FF90EF90DF90CF90BF90AF909F908F9010
:100830000895CF93DF9397FF9AC091958195910981
:1008400020E13EE0B9010E949236281B390B253881
:1008500043E03407B4F4C5E0D0E0C901BE010E9412
:100860009236FB01EE0FFF1FE451FE4F85919491EC
:10087000909381058093800584E893E0821B930B1D
:1008800065C0C9018558934084389340C0F488E01E
:1008900097E0821B930BC5E0D0E0BE010E94923628
:1008A000FB01EE0FFF1FE451FE4F85919491909351
:1008B000810580938005C901845893401FC0C901F8
:1008C00089509740843843E0940730F50196C5E09D
:1008D000D0E0BE010E949236FB01EE0FFF1FE451F3
:1008E000FE4F859194919195819591099093810501
:1008F000809380058CE89AE0821B930BBE010E94D6
:100900009236FB01EE0FFF1FE451FE4F859194914B
:1009100091958195910924C080E19EE0821B930B03
:10092000C5E0D0E0BE010E949236FB01EE0FFF1F32
:10093000E451FE4F85919491919581959109909301
:10094000810580938005C9018C589A40BE010E94A0
:100950009236FB01EE0FFF1FE451FE4F85919491FB
:100960009093830580938205DF91CF91089560E194
:100970007EE00E9492369C016ACFAF92BF92CF92E6
:10098000DF92EF92FF920F931F93CF93DF93CDB738
:10099000DEB729970FB6F894DEBF0FBECDBF8AE54C
:1009A00096E00E94952284E00E943B1D892B09F469
:1009B000D0C010928F05EBE5F5E0E491E093460698
:1009C000E5E1F5E0E491F0E0EE0FFF1FEE53FB4FA1
:1009D000859194919093480680934706EAE5F5E067
:1009E000E491E0934906E4E1F5E0E491F0E0EE0FF4
:1009F000FF1FEE53FB4F8591949190934B0680938C
:100A00004A06ECE5F5E0E491E0934C06E6E1F5E01A
:100A1000E491F0E0EE0FFF1FEE53FB4F85919491B0
:100A200090934E0680934D06E8E5F5E0E491E0935F
:100A30004F06E2E1F5E0E491F0E0EE0FFF1FE45233
:100A4000FB4F85919491909351068093500661E0FD
:100A50008FE10E94561E61E080E20E94561E61E016
:100A60008EE10E94561E60E08CE10E94561E61E0FD
:100A70008CE10E94631D0E9452230E9461230E9408
:100A80002D240E942D2480912D06813429F0833756
:100A900019F0893709F04AC081E0809356068BE04F
:100AA000E82EF12C97E0A92EB12C65E088E292E0C7
:100AB0000E94EE23C5010197F1F70E9452230E9484
:100AC00061230E94DE23C5010197F1F701EB12E0DB
:100AD000FE0131966F01F80181918F010E94702310
:100AE000F60181936F01F2E00A3B1F07A1F70E9414
:100AF00043238C818093570669E08FE192E00E9446
:100B0000EE2369E088E092E00E94EE230E942D240B
:100B100080912D06833761F081E0E81AF10851F0E9
:100B2000809156068F5F80935606BFCF11E003C0B9
:100B300010E001C012E087EE93E00E944223612F93
:100B400070E080E090E00E9412238BEF92E00E9420
:100B5000C02280E8809307028093060280930502FA
:100B6000809304021092850510928C0510928B05DB
:100B7000109287051092860510928E0510928D05B1
:100B800010928A0510928905109288051092A5048A
:100B900084E690E09093FA048093F9041092F704AD
:100BA00061E085E40E94561E60E085E40E94631DBA
:100BB00061E087E10E94561E60E087E10E94631DAC
:100BC00060E088E10E94561E61E088E10E94631D9A
:100BD00060E084E00E94561E61E084E00E94631D94
:100BE00080E490E00E94BC228FEF90E029960FB63F
:100BF000F894DEBF0FBECDBFDF91CF911F910F9153
:100C0000FF90EF90DF90CF90BF90AF900C94BC22FC
:100C10002F923F924F925F926F927F928F929F920C
:100C2000AF92BF92DF92EF92FF920F931F93CF93F9
:100C3000DF931F92CDB7DEB7FE017696D19050E4D8
:100C4000452E52E4552E5FE0652E712CDD2009F40F
:100C50005DC0A080B1801F0144E0240E311C0281E0
:100C6000138161E08EE20E94561EE4E2F5E0849179
:100C7000E82FF0E0EE0FFF1FEE53FB4FE590F490EE
:100C8000EAE6F5E084918983000F111F9801D501F0
:100C90000E94093528EE33E040E050E00E94E7343E
:100CA00049015A01980140E050E0C301B2010E949D
:100CB000BB34C901220F331F220F331F25503109C6
:100CC000F1E08F1A9108A108B1084FEF841694063D
:100CD000A406B40661F04981F7015081452740839D
:100CE0008230910568F3F9013197F1F7E9CF9981E5
:100CF000F7018081282F30E0892F90E08095909532
:100D0000822393238083DA94F101A0CF60E08EE206
:100D10000E94561E0F90DF91CF911F910F91FF906F
:100D2000EF90DF90BF90AF909F908F907F906F90EB
:100D30005F904F903F902F9008954F925F926F92E7
:100D40007F928F929F92AF92BF92CF92DF92EF925B
:100D5000FF920F931F93CF93DF93E7EAF4E0849120
:100D600090E0A0E0B0E04091AB045091AC04609101
:100D7000AD047091AE0484179507A607B7076CF40D
:100D8000E4918E2F90E0A0E0B0E08093AB049093CC
:100D9000AC04A093AD04B093AE04E4EAF4E0E491B3
:100DA000CE2FD0E04091AB045091AC046091AD04E3
:100DB0007091AE04E5EAF4E0E4918E2F90E0A0E0BB
:100DC000B0E084179507A607B70784F4E6EAF4E0D5
:100DD000E4918E2F90E0A0E0B0E084179507A6077D
:100DE000B7076CF0E1E0F0E081E003C0E0E0F0E0A4
:100DF00080E0EE55FB4FE491CE2FD0E001C082E0C1
:100E000090918405891709F4BBC080938405809173
:100E100087048823D1F082EF93E00E9442236091FF
:100E2000AB047091AC048091AD049091AE040E942B
:100E3000122383E993E00E944223CE01A0E0B0E0B8
:100E40004AE0BC01CD010E94D222CB3BD10530F457
:100E5000C333D10528F4C3E3D0E002C0CAEBD0E02D
:100E60008091020290910302C817D90709F488C043
:100E7000D0930302C093020286E9C82E84E0D82EE4
:100E80000EE614E09AE7E92E94E0F92E20E1822E96
:100E900027E2922EA12CB12C30EF432E38ED532EA9
:100EA00066246A94762C809187048823B1F08FEDB4
:100EB00092E00E944223F801808191810E943B25AB
:100EC00081EE92E00E944223F701808191810E948D
:100ED0003B258BEF93E00E944223F601859194918C
:100EE000A8DCA0918205B09183059E010E94B336D3
:100EF000A50194010E94BB34F80131832083A091A5
:100F00008005B09181059E010E94B336A301920134
:100F10000E94BB34F70131832083809187048823AA
:100F2000B1F08FED92E00E944223F801808191811F
:100F30000E943B2581EE92E00E944223F7018081CE
:100F400091810E943B258FEF93E00E944223F2E0C3
:100F5000CF0ED11C0E5F1F4F82E0E80EF11CE4E0C3
:100F60000A371E0709F09FCF80918704882321F05C
:100F70008DEF92E00E9429258091CF048093FB049D
:100F8000DF91CF911F910F91FF90EF90DF90CF9065
:100F9000BF90AF909F908F907F906F905F904F9099
:100FA0000895E5EAF4E01282138214821582168213
:100FB0001782108611861286138614861586128E65
:100FC000138E148E158E168E178E10A211A212A2D9
:100FD00013A214A215A210AE11AE12AE13AE10924F
:100FE000E5041092E6041092E7041092E80414AEAF
:100FF00015AE16AE17AE10928C0510928B0510929E
:101000008705109286058FEF8093E904108295CEB4
:101010002F923F924F925F926F927F928F929F9208
:10102000AF92BF92CF92DF92EF92FF920F931F93F6
:10103000CF93DF93CDB7DEB765970FB6F894DEBFD9
:101040000FBECDBF9C878B877E876D87588B4F8760
:10105000298BBA0151DBA0917E05B0917F052989CA
:10106000622E712C8301000F111FF801EA56FB4F0D
:10107000E590F490A8014D5A5B4F6A0124EB30E0F3
:101080000E94B33655E4852E5CE0952EA12CB12C40
:10109000A50194010E94BB342E0D3F1DF601318342
:1010A0002083F301E057FB4FF49060917A05709133
:1010B0007B0580917C0590917D0524E630E040E041
:1010C00050E00E94BB34EF2DF0E0B9016E1B7F0BA6
:1010D0008D859E8511DB98878F83C0907A05D0908F
:1010E0007B05E0907C05F0907D05930126573B4FF2
:1010F0001901F901F491FB83F901F491FA8B930141
:101100002C573B4F3A832983F901F491FD8BF90168
:10111000F491FB8BA7019601C701B6010E946336CB
:101120002B013C01F101F4914B81242F30E05A89CD
:10113000A52FB0E00E9409356B837C838D839E834D
:101140008D89282F30E09B89A92FB0E00E940935B6
:101150002B813C814D815E81261B370B480B590B3F
:10116000A0E1B7E20E94D7349B01AC01240D351DEC
:10117000461D571D2B833C834D835E83A8ECB0E056
:10118000A70196010E94D7349B01AC01AF2FB0E0BC
:101190000E94D73420E137E240E050E00E94BB34A7
:1011A0006B817C818D819E810E94BB34C90149DAAB
:1011B000A801495B5B4F5C834B83EF81F8859F01FE
:1011C000FF0F440B550B260F371F481F591FACE468
:1011D000BFEF0E94E334A50194010E94BB342C5759
:1011E0003C4FEB81FC8131832083F1012491A49158
:1011F000E981FA8154914491F101F491FA8BE981EA
:10120000FA81F49130E0B0E00E9409356F8378876D
:1012100089879A87252F30E0A42FB0E00E940935F6
:101220002F81388549855A85260F371F481F591F3A
:10123000A0E1B7E20E94D7349B01AC012419350923
:101240004609570929013A013A89832F90E0A0E025
:10125000B0E09C01AD01220F331F441F551FAF2F7B
:10126000B0E00E94D7349B01AC01C301B2010E94DF
:10127000BB34C901E6D9A0917805B0917905A801E0
:10128000455C5B4F3A0124EB30E00E94B336A50188
:1012900094010E94BB3424583340F30131832083EE
:1012A000F1012491E981FA81849190E0820F911DEE
:1012B0004E9744E6489F9001499F300D1124C90183
:1012C000A0E0B0E0C816D906EA06FB0620F481E0EB
:1012D00080936D041CC0F1018491E981FA8194919D
:1012E000292F30E0280F311D429FC001439F900DF0
:1012F0001124A0E0B0E0C816D906EA06FB0620F4E7
:1013000081E080936C0403C081E080936B04809142
:101310008704882309F473C08091A504882309F405
:101320006EC08FED92E00E9442238B859C850E94C7
:101330003B2581EE92E00E9442238D859E850E948E
:101340003B2581EE92E00E9442238F8598890E947E
:101350003B2582E094E00E944223F801ED5AFB4FC6
:10136000808191810E943B2581EE92E00E94422380
:10137000F801E95BFB4F808191810E943B2581EE62
:1013800092E00E944223F801E55CFB4F808191814D
:101390000E943B258DEF93E00E94422320916B0435
:1013A00080916C0490E0880F991FF4E02F9F800DCE
:1013B000911D112420916D04820F911D0E943B25E7
:1013C00029892530E1F48BEF92E065960FB6F89409
:1013D000DEBF0FBECDBFDF91CF911F910F91FF9068
:1013E000EF90DF90CF90BF90AF909F908F907F90C5
:1013F0006F905F904F903F902F900C94C022659615
:101400000FB6F894DEBF0FBECDBFDF91CF911F9115
:101410000F91FF90EF90DF90CF90BF90AF909F9093
:101420008F907F906F905F904F903F902F90089596
:101430002F923F924F925F926F927F928F929F92E4
:10144000AF92BF92CF92DF92EF92FF920F931F93D2
:10145000CF93DF93CDB7DEB7E4970FB6F894DEBF36
:101460000FBECDBF290110E0000F111FF801E85891
:10147000FB4FE590F4908E0D9F1DE090B304F0902B
:10148000B404E80EF91E6090B7047090B804640EBE
:10149000751EF801E459FB4FC590D4906C0D7D1D6D
:1014A000C090BB04D090BC04C60ED71E20919004FF
:1014B000309191048091BF049091C004820F931FDA
:1014C000B8D9009180051091810520908205309057
:1014D000830520918804309189048091C7049091FC
:1014E000C804820F931FA5D9A0908005B0908105F4
:1014F000809082059090830580918C0490918D045A
:101500002091C3043091C404820F931F4AE0449D8C
:101510009001459D300D1124820F931F8AD924E636
:1015200030E0D3010E94B3366D8F7E8F8F8F98A3EA
:101530009501BB0C440B550B2D833E834F8358877D
:1015400024E630E0D6010E94B33669877A878B871C
:101550009C87092C000CAA08BB08809180059091FB
:1015600081059C01990F440B550B2D8B3E8B4F8BA6
:10157000588F24E630E0D7010E94B336698F7A8F06
:101580008B8F9C8F80918205909183059C01990F90
:10159000440B550B29833A834B835C83298D3A8D09
:1015A0004B8D5C8D69817A818B819C810E94633631
:1015B00030E1C32E37E2D32EE12CF12CA7019601A6
:1015C0000E94BB3429A33AA34BA35CA32D8D3E8D6F
:1015D0004F8D58A16D817E818F8198850E946336E1
:1015E00040EF442E48ED542E66246A94762CA301D5
:1015F00092010E94BB342D873E874F87588B2985E7
:101600003A854B855C85C501B4010E946336A7010C
:1016100096010E94BB346D897E898F89988D0E94C6
:101620006336A70196010E94BB34298B3A8B4B8B02
:101630005C8B29A13AA14BA15CA1C501B4010E9418
:101640006336A30192010E94BB3489899A89AB89D0
:10165000BC89820F931FA41FB51F2D853E854F8522
:101660005889820F931FA41FB51F298D3A8D4B8D6A
:101670005C8D280F391F4A1F5B1FCA01B90124E680
:1016800030E040E050E00E94BB3420935F04309390
:10169000600440936104509362042D8D3E8D4F8D04
:1016A00058A1C501B4010E946336A70196010E94AA
:1016B000BB342D873E874F87588B4801110FAA08EE
:1016C000BB0829853A854B855C8569817A818B8148
:1016D0009C810E946336A70196010E94BB34298B2E
:1016E0003A8B4B8B5C8BC101330CAA0BBB0B8983F0
:1016F0009A83AB83BC832D853E854F855889C50170
:10170000B4010E946336A70196010E94BB342DA349
:101710003EA34FA358A729853A854B855C856D89E3
:101720007E898F89988D0E946336A70196010E9459
:10173000BB346D817E818F8198850E946336A701BD
:1017400096010E94BB34C501B4010E946336A70113
:1017500096010E94BB3429A73AA74BA75CA7298909
:101760003A894B895C8969817A818B819C810E944D
:101770006336A30192010E94BB342DA73EA74FA759
:1017800058AB29A13AA14BA15CA16D817E818F81CB
:1017900098850E946336A70196010E94BB34C5015B
:1017A000B4010E946336A30192010E94BB3429ABAD
:1017B0003AAB4BAB5CAB298D3A8D4B8D5C8D69811F
:1017C0007A818B819C810E946336A70196010E94D9
:1017D000BB346D897E898F89988D0E946336A30101
:1017E00092010E94BB3489A99AA9ABA9BCA9820F16
:1017F000931FA41FB51F2DA53EA54FA558A9820F65
:10180000931FA41FB51F29A53AA54BA55CA5820F60
:10181000931FA41FB51F2DA13EA14FA158A5820F54
:10182000931FA41FB51F29853A854B855C85280F1A
:10183000391F4A1F5B1FCA01B90124E630E040E0AE
:1018400050E00E94BB3420936704309368044093B7
:10185000690450936A042D853E854F8558896981B6
:101860007A818B819C810E946336A30192010E9440
:10187000BB342D873E874F87588B29853A854B850A
:101880005C8569817A818B819C810E946336A70186
:1018900096010E94BB346D897E898F89988D0E9444
:1018A0006336A70196010E94BB346D817E818F81D2
:1018B00098850E946336A30192010E94BB34298758
:1018C0003A874B875C8729893A894B895C89C501AE
:1018D000B4010E946336A30192010E94BB34298B9C
:1018E0003A8B4B8B5C8B29A13AA14BA15CA16981FE
:1018F0007A818B819C810E946336A70196010E94A8
:10190000BB346D817E818F8198850E946336A701EB
:1019100096010E94BB342D833E834F835887298DC7
:101920003A8D4B8D5C8D6D897E898F89988D0E9453
:101930006336A70196010E94BB34C501B4010E9421
:101940006336A30192010E94BB348D819E81AF81D9
:10195000B885820F931FA41FB51F29893A894B8927
:101960005C89820F931FA41FB51F29853A854B857B
:101970005C85820F931FA41FB51F2D853E854F8563
:101980005889820F931FA41FB51F2D8D3E8D4F8D3B
:1019900058A1280F391F4A1F5B1FCA01B90124E64D
:1019A00030E040E050E00E94BB3420936304309369
:1019B00064044093650450936604E4960FB6F8946B
:1019C000DEBF0FBECDBFDF91CF911F910F91FF9072
:1019D000EF90DF90CF90BF90AF909F908F907F90CF
:1019E0006F905F904F903F902F9008954F925F922D
:1019F0006F927F928F929F92AF92BF92CF92DF921F
:101A0000EF92FF920F931F93CF93DF9300D01F921B
:101A1000CDB7DEB7E982FA820B831C83EC2DF0E0B0
:101A20008F01000F111FF801E459FB4FA591B491EC
:101A30006D01BB0FEE08FF0846015701820E931E91
:101A4000A41EB51EF801E858FB4F25913491690199
:101A5000330FEE08FF08C60ED71EE81EF91E498098
:101A60005A806B807C8086E9480E511C611C711C79
:101A7000409194045091950460919604709197045C
:101A800089819A81AB81BC81840F951FA61FB71FE6
:101A90008093940490939504A0939604B093970434
:101AA0008091980490919904A0919A04B0919B041C
:101AB000880D991DAA1DBB1D8093980490939904CD
:101AC000A0939A04B0939B0480919C0490919D04F0
:101AD000A0919E04B0919F048C0D9D1DAE1DBF1D55
:101AE00080939C0490939D04A0939E04B0939F04C4
:101AF000B401C6010E947C0328E037E0DC010E94AB
:101B0000B33627EB3AE740E050E00E94BB348091C7
:101B10008C0490918D04A0918E04B0918F04820F5B
:101B2000931FA41FB51F80938C0490938D04A093E2
:101B30008E04B0938F0480918704882331F183E968
:101B400093E00E944223C701B6010E9412238EEF48
:101B500092E00E944223C301B2010E9412238EEF41
:101B600092E00E944223C501B4010E9412238EEF2D
:101B700092E00E94422360918C0470918D048091C8
:101B80008E0490918F040E941223B201C6010E941C
:101B90007C0328E037E0DC010E94B33627EBC22E3D
:101BA0002AE7D22EE12CF12CA70196010E94BB342A
:101BB000BA01A90144585340610971098091880410
:101BC00090918904A0918A04B0918B04840F951F91
:101BD000A61FB71F8093880490938904A0938A045A
:101BE000B0938B04B201C4010E947C0328E037E06B
:101BF000DC010E94B336A70196010E94BB34BA01F2
:101C0000A901445853406109710980919004909151
:101C10009104A0919204B0919304840F951FA61F84
:101C2000B71F8093900490939104A0939204B09373
:101C300093040F900F900F900F90DF91CF911F9111
:101C40000F91FF90EF90DF90CF90BF90AF909F905B
:101C50008F907F906F905F904F900895CF93DF9318
:101C60008091CB04863060F49EE0989FF0011124AF
:101C7000E35AFD4FADECB4E001900D929A95E1F777
:101C800090918704992309F459C00E94352586E074
:101C900094E00E9442238091CD049091CE040E9452
:101CA0003B258CE094E00E9442238091CF040E9467
:101CB00035258CE094E00E9442238091D0040E945C
:101CC00035258CE094E00E9442238091D1040E944B
:101CD00035258CE094E00E9442238091D2040E943A
:101CE00035258CE094E00E9442238091D3040E9429
:101CF00035258CE094E00E9442238091D4040E9418
:101D000035258FE094E00E944223C0E0D0E0FE0140
:101D1000EB55FB4F80A90E943525C530D10521F038
:101D20008CE094E00E9442232196C630D10579F7D9
:101D300083E194E0DF91CF910C942925DF91CF913D
:101D400008952F923F924F925F926F927F928F925F
:101D50009F92AF92BF92CF92DF92EF92FF920F933A
:101D60001F93CF93DF93CDB7DEB72B970FB6F894C1
:101D7000DEBF0FBECDBF80913A04811102C00E9428
:101D8000ED258BE296E00E94042106E114E025E4B3
:101D900039E03B872A8783E5E82E84E0F82E4BE480
:101DA00052E05C834B8397E4692E94E0792E81E5C1
:101DB00092E09A8389832BE3422E24E0522E37E56A
:101DC000232E32E0332E4FED842E43E0942EA12CAF
:101DD000B12C96E0920D9987F10181911F01F201DA
:101DE000882331F08081918191958195910902C07C
:101DF00080819181E981FA812191FA83E983F3015C
:101E0000222331F02081318131952195310902C0A1
:101E100020813181EB81FC814191FC83EB83F701CF
:101E2000A081B181442319F0B195A195B109AC57B6
:101E3000BC4FA9014C575C4F5E834D83FC01EC57AE
:101E4000FC4FF887EF83F801608171816B01F0EB43
:101E5000CF1AFDEFDF0A28EE33E00E94B336A5016A
:101E600094010E94BB34B601620F731F8A859B8563
:101E70000E941A21F801C280D380F0EBCF1AFDEF47
:101E8000DF0A28EE33E0AD81BE810E94B336A501A2
:101E900094010E94BB34B601620F731F8A859B8533
:101EA00003960E941A21F801C480D580F0EBCF1A66
:101EB000FDEFDF0A28EE33E0AF81B8850E94B3362C
:101EC000A50194010E94BB34B601620F731F8A857D
:101ED0009B8506960E941A210A5F1F4F2A853B8523
:101EE000275F3F4F3B872A8732E0E30EF11C42E039
:101EF000640E711C52E0450E511C898582116CCF15
:101F00002B960FB6F894DEBF0FBECDBFDF91CF91F9
:101F10001F910F91FF90EF90DF90CF90BF90AF9007
:101F20009F908F907F906F905F904F903F902F90F9
:101F30000895EF92FF921F93CF93DF9380E090E09C
:101F40000E94A534823119F0E6E1F4E019C0C2E044
:101F5000D0E010E086E1E82E84E0F82ECE010E9469
:101F6000A534F70181937F01180F2196C632D10560
:101F7000A9F781E090E00E94A5341813E5CF06C0D0
:101F80001192119284E0EA33F807D1F7DF91CF91F3
:101F90001F91FF90EF9008956F927F928F929F9282
:101FA000AF92BF92CF92DF92EF92FF920F931F9367
:101FB000CF93DF9358E0652E712C07E010E066E0C8
:101FC000E62EF12C75E0C72ED12CE4E0AE2EB12C1C
:101FD000F3E08F2E912C8AE596E00E94D91A18160C
:101FE00019060CF050C18AE596E00E94B71A9C01D0
:101FF000982FE0919005F0919105E930F10508F0F6
:10200000C3C08827EE58FF4F8F4F0C94A5369132EE
:1020100011F781E090E004C09A3239F482E090E058
:102020009093910580939005D6CF109291051092D0
:1020300090058AE596E00E94D91A181619062CF424
:102040008AE596E00E94B71AF4CF8AE596E00E94EE
:102050005E1BC1CF33273093930520939205909256
:10206000910580929005B7CF332730939D0520933B
:102070009C05B0929105A0929005ADCF3327309387
:10208000950520939405D0929105C0929005A3CF19
:1020900033273093970520939605F0929105E092AF
:1020A000900599CF33273093990520939805109385
:1020B0009105009390058FCF332730939B05209394
:1020C0009A05709291056092900585CF9F3F09F027
:1020D00046C010929105109290051092AD05109295
:1020E000AC051092A1051092A0051092A3051092C4
:1020F000A2051092A5051092A4051092A7051092B2
:10210000A6051092A9051092A8051092AB05109291
:10211000AA0500919C0510919D05E0919405F09110
:10212000950520919605309197058091980590919D
:10213000990540919A0550919B05702F7E276BE081
:10214000672762276827642770E0A0919205B09105
:1021500093056A177B0769F183E090E03DC081E059
:1021600090E00E94BC2210929105109290058AE5A1
:1021700096E00E94D91A181619060CF066CF8AE567
:1021800096E00E94B71AF3CF82E090E00E94BC2252
:1021900010929105109290058AE596E00E94D91A56
:1021A000181619060CF051CF8AE596E00E94B71A6E
:1021B000F3CF60918F05662309F440C58EE690E069
:1021C0009093AD058093AC0581E090E09093A105DC
:1021D0008093A00580E490E090939F0580939E05F6
:1021E000D091AA051091A8050091A605F090A4052C
:1021F000E090A205D090A005C090AC05B0909E05DF
:10220000CD2FC1278BE0C827C027CF25CE25CD25D0
:10221000CC25CB2581E290E00E94BC228AE290E0AE
:102220000E94BC226C2F8AE596E00E94181B6B2D41
:102230008AE596E00E94181B6C2D8AE596E00E94C4
:10224000181B6D2D8AE596E00E94181B6E2D8AE5FD
:1022500096E00E94181B6F2D8AE596E00E94181BDD
:10226000602F8AE596E00E94181B612F8AE596E0B0
:102270000E94181B6D2F8AE596E00E94181B8FEFB5
:1022800090E00E94BC2284E00E943B1D892B09F44F
:10229000CFC40E942D2480912D06807F803711F0BD
:1022A0000C94551A88E090E00E94D1258823E9F12A
:1022B00080918F05811123C061E085E40E94631D38
:1022C0008FE08F9380EA8F931F9282E38F9389E050
:1022D0008F9384EC8F931F9284E68F9382E08F9389
:1022E0000E94080681E080938F056DB77EB7675F17
:1022F0007F4F0FB6F8947EBF0FBE6DBF16C060E073
:1023000085E40E94631D89E08F9384EC8F931F9274
:1023100084E68F9381E08F930E94080610928F05C8
:102320000F900F900F900F900F9080918F05882342
:1023300011F40C94551A10928E0580E090E40E94DE
:10234000D125882361F08091A504882319F00E948B
:10235000D10705C081E08093A50480938E0580E0BD
:1023600090E20E94D125882309F181E08F9384EFC8
:102370008F931F9288EC8F9383E08F9398EE9F93B7
:102380001F929AEF9F9327E02F9320ED2F931F9298
:102390009F938F930E9408060C9400008DB79EB700
:1023A0000D960FB6F8949EBF0FBE8DBF8091A50409
:1023B000882309F406C480E094E00E94D125882394
:1023C00099F180918D058130E9F410928D058FE0AF
:1023D0008F9380EA8F931F9282E38F9387E08F938E
:1023E00080ED8F931F9284E68F9382E08F930E94FB
:1023F0000806ADB7BEB719960FB6F894BEBF0FBEAC
:10240000ADBF12C081E080938D0597E09F9390ED62
:102410009F931F9292E39F938F930E9408060F90C1
:102420000F900F900F900F9080E091E00E94D125C7
:10243000882399F180918D058230E1F410928D0509
:102440009FE09F9390EA9F931F9292E39F9397E060
:102450009F9390ED9F931F9294E69F938F930E947A
:102460000806CDB7DEB729960FB6F894DEBF0FBECB
:10247000CDBF13C082E080938D0587E08F9380ED00
:102480008F931F9282E38F9381E08F930E940806BF
:102490000F900F900F900F900F9080E090E80E94A7
:1024A000D125882399F18091F70491E089278093C1
:1024B000F704882381F087E08F9380ED8F931F923C
:1024C00082E38F939F930E9408060F900F900F90C6
:1024D0000F900F901BC08FE08F9380EA8F931F9215
:1024E00082E38F9387E08F9380ED8F931F9284E632
:1024F0008F9382E08F930E9408060DB71EB7075F87
:102500001F4F0FB6F8941EBF0FBE0DBF80E090E1C5
:102510000E94D125882309F43FC080918B059091BA
:102520008C051816190604F58FE08F9380EA8F93B7
:102530001F9282E38F9387E08F9380ED8F931F929A
:1025400084E68F9382E08F930E94080610928C0598
:1025500010928B056DB77EB7675F7F4F0FB6F8940B
:102560007EBF0FBE6DBF18C087E08F9380ED8F9345
:102570001F9282E38F93C1E0CF930E94080683E20B
:1025800090E090938C0580938B05C0938E050F90FF
:102590000F900F900F900F9080E190E00E94D12556
:1025A000882359F180918B0590918C050A96909320
:1025B0008C0580938B0521E020938E05883891054A
:1025C0006CF087E890E090938C0580938B0585E014
:1025D0008F938CED8F931F9286E906C087E08F93CF
:1025E00080ED8F931F9282E38F932F930E940806B2
:1025F0000F900F900F900F900F9080E490E00E944A
:10260000D125882311F180918B0590918C0500973D
:10261000E1F08B3091050CF420C70A9790938C055C
:1026200080938B0587E08F9380ED8F931F9282E3D9
:102630008F9381E08F930E9408060F900F900F9068
:102640000F900F9081E080938E0580E290E00E94D1
:10265000D125882369F18091F9049091FA04893198
:102660009105B0F049979093FA048093F904843669
:10267000910539F48BE08F9388EB8F931F9284E65A
:102680000DC087E08F9380ED8F931F9282E306C089
:1026900085E08F938CED8F931F9286E98F9381E075
:1026A0008F930E9408060F900F900F900F900F903D
:1026B00080E890E00E94D125882369F18091F90497
:1026C0009091FA04893C9105B0F449969093FA04EC
:1026D0008093F9048436910539F48BE08F9388EB6D
:1026E0008F931F9284E60DC087E08F9380ED8F93C8
:1026F0001F9282E306C085E08F938CED8F931F922B
:1027000086E98F9381E08F930E9408060F900F90C7
:102710000F900F900F908091330680930702809165
:1027200034068093060280918D0581114FC181E0AE
:1027300090E00E94D125882309F459C08091DD04DE
:102740009091DE04A091DF04B091E0040396A11DF6
:10275000B11D0797A105B10508F049C08091E504B6
:102760009091E604A091E704B091E8040396A11DBE
:10277000B11D0797A105B105D0F52091E104309175
:10278000E2044091E3045091E40412161306140687
:1027900015065CF4DA01C901880F991FAA1FBB1F37
:1027A0000497A105B10554F022C0AEEFBFEF0E941F
:1027B000E3346430710581059105CCF48091CB043C
:1027C0008F5F8093CB04863008F052C687E08F93EA
:1027D00080ED8F931F9282E38F9381E08F930E940D
:1027E00008060F900F900F900F900F9037DA80E04F
:1027F00098E00E94D1258823F1F180918A0591E02B
:10280000892780938A058823B1F024E630E030934D
:10281000DC042093DB0487E08F9380ED8F931F927D
:1028200082E38F939F930E9408060F900F900F9062
:102830000F900F9020C088E290E09093DC0480938A
:10284000DB048FE08F9380EA8F931F9282E38F9354
:1028500087E08F9380ED8F931F9284E68F9382E0C1
:102860008F930E940806ADB7BEB719960FB6F894BD
:10287000BEBF0FBEADBF80E092E00E94D12588238D
:1028800091F18091890591E08927809389058823BA
:1028900081F087E08F9380ED8F931F9282E38F9377
:1028A0009F930E9408060F900F900F900F900F902B
:1028B0001AC08FE08F9380EA8F931F9282E38F93E9
:1028C00087E08F9380ED8F931F9284E68F9382E051
:1028D0008F930E940806CDB7DEB729960FB6F894FD
:1028E000DEBF0FBECDBF80918805882319F080918F
:1028F000320614C02091070280E890E0821B910903
:10290000092E000CAA0BBB0B8093DD049093DE0410
:10291000A093DF04B093E0048091060290E0805819
:102920009109092E000CAA0BBB0B8093E504909330
:10293000E604A093E704B093E8048091890581112F
:102940002DC06091DD047091DE048091DF049091D0
:10295000E004E2E0CE2ED12CE12CF12CA70196016F
:102960000E94BB342093DD043093DE044093DF04E7
:102970005093E0046091E5047091E6048091E704CF
:102980009091E804A70196010E94BB342093E504CE
:102990003093E6044093E7045093E8042091310615
:1029A00080E890E0821B910997FD039695958795A5
:1029B00095958795092E000CAA0BBB0B8093E1041B
:1029C0009093E204A093E304B093E404109287058B
:1029D0001092860580918D05E0913106F0910702F5
:1029E00040910602813009F042C08F2F90E080585C
:1029F000910997FD019695958795092E000CAA0BD4
:102A0000BB0B8093A7049093A804A093A904B09350
:102A1000AA0420E830E0C901841B910963E070E05A
:102A20000E949236CB01770FAA0BBB0B8093AF04A9
:102A30009093B004A093B104B093B2048E2F90E0B1
:102A400080589109880F991F092E000CAA0BBB0B07
:102A50008093C3049093C404A093C504B093C604A8
:102A6000809132067901E81AF108C7013BC0823033
:102A700009F040C0842F90E080589109092E000C85
:102A8000AA0BBB0B8093BF049093C004A093C10416
:102A9000B093C2048E2F90E080589109880F991F3F
:102AA000092E000CAA0BBB0B8093C3049093C404A3
:102AB000A093C504B093C6048F2F90E0805891096D
:102AC000092E000CAA0BBB0B8093C7049093C8047B
:102AD000A093C904B093CA042091320680E890E024
:102AE000821B910997FD019695958795909387058F
:102AF000809386055F2F2F2F30E02138310524F099
:102B0000D901A058B10904C0A0E8B0E0A21BB30BE2
:102B1000642F70E06138710524F0CB018058910971
:102B200004C080E890E0861B970B8A179B075CF433
:102B30002138310524F0C9018058910904C080E88A
:102B400090E0821B930BAE2FB0E0A138B10534F0BA
:102B5000A058B109A817B9074CF02BC0C0E8D0E0C5
:102B60008E010A1B1B0B0817190734F52138310594
:102B700024F0C9018058910904C080E890E0821BCC
:102B8000930B6138710534F0605871096817790743
:102B90004CF00DC0A0E8B0E0ED01C61BD70BC81784
:102BA000D90764F42138310554F05F2F03C0542F46
:102BB00001C05E2F519503C05E2F01C0542F50936A
:102BC000F80420918B0530918C05809186059091B9
:102BD0008705820F931F873891054CF497FF02C039
:102BE00080E090E0092E000CAA0BBB0B04C087E824
:102BF00090E0A0E0B0E08093AB049093AC04A0938D
:102C0000AD04B093AE0480918E05882309F44DC4C1
:102C1000DF91CF911F910F91FF90EF90DF90CF90B8
:102C2000BF90AF909F908F907F906F900C949D0677
:102C300060E085E448D710928F0537C40C33110546
:102C400009F456C28CF50931110509F490C09CF4C1
:102C50000A30110509F4A6C02CF40530110509F459
:102C60006CC05CC30F30110509F4CDC104311105EE
:102C700009F470C053C36091A5040D32110509F425
:102C800074C14CF40332110509F41AC1083211055C
:102C900009F497C043C30233110509F400C2073396
:102CA000110509F419C23AC30E36110509F4C4C25C
:102CB0003CF50B34110509F472C24CF401341105D2
:102CC00009F459C20634110509F47DC227C304363C
:102CD000110509F484C20936110509F01FC389E3FF
:102CE0000E94921E1093AD050093AC059093A00531
:102CF0001092A10599279093A3058093A2050CC378
:102D00000D37110509F4ABC27CF40337110509F442
:102D100098C20837110509F001C31093AD0500935F
:102D2000AC058091A50495C20238110509F442C290
:102D30000F3F110509F4CBC2F1C2E130F10521F4D6
:102D400081E08093A5042BC0EF2B09F0E5C20E941F
:102D5000D107E2C2E130F10521F481E08093F7046C
:102D6000DBC2EF2B09F0D8C21092F704D5C28091D4
:102D7000A504882309F4D0C280918B0590918C051D
:102D8000883891053CF087E890E090938C0580931B
:102D90008B05C2C2F0938C05E0938B0581E0809394
:102DA0008E05BAC2EE0FEB5FE83C20F4EA3118F46E
:102DB000E9E101C0E8ECF0E0F093FA04E093F904F3
:102DC000ABC2662309F4A8C2E0930702209306026F
:102DD0008093050210928D0510928705109286054A
:102DE00040918805EC01DD27442311F0CE0112C08B
:102DF00080E890E08E1B9109092E000CAA0BBB0BFA
:102E00008093DD049093DE04A093DF04B093E0048C
:102E10003327C90180589109092E000CAA0BBB0B5E
:102E20008093E5049093E604A093E704B093E8044C
:102E30008091890581112DC06091DD047091DE04BF
:102E40008091DF049091E00442E0C42ED12CE12C6B
:102E5000F12CA70196010E94BB342093DD0430932E
:102E6000DE044093DF045093E0046091E504709128
:102E7000E6048091E7049091E804A70196010E947E
:102E8000BB342093E5043093E6044093E704509369
:102E9000E80480E890E08C1B9D0B97FD03969595C8
:102EA000879595958795092E000CAA0BBB0B8093EF
:102EB000E1049093E204A093E304B093E4042CC2F1
:102EC000662309F429C2E093070220930602809347
:102ED00005024093040261E060938D05FF27E058EE
:102EE000F109F7FD3196F595E7956F01FF0FEE08B3
:102EF000FF08C092A704D092A804E092A904F0921F
:102F0000AA04E0E8F0E07F01E81AF108C70163E0F5
:102F100070E00E949236CB01770FAA0BBB0B809317
:102F2000AF049093B004A093B104B093B2043327DC
:102F3000C90180589109880F991F092E000CAA0B0E
:102F4000BB0B8093C3049093C404A093C504B093B7
:102F5000C604CF01841B910997FD0196959587952D
:102F60009093870580938605D7C1662309F4D4C161
:102F7000E093070220930602809305024093040227
:102F800052E050938D05992780589109092E000C25
:102F9000AA0BBB0B8093BF049093C004A093C10401
:102FA000B093C2043327C90180589109880F991F33
:102FB000092E000CAA0BBB0B8093C3049093C4048E
:102FC000A093C504B093C604FF27E058F109CF01D0
:102FD000FF0FAA0BBB0B8093C7049093C804A09368
:102FE000C904B093CA0480E890E0841B91099C0155
:102FF00097FF02C02F5F3F4F359527953093870588
:103000002093860589C18091DD049091DE04A09112
:10301000DF04B091E0040396A11DB11D0797A1053F
:10302000B10508F079C18091E5049091E604A09182
:10303000E704B091E8040396A11DB11D0797A1050F
:10304000B10508F069C12091E1043091E20440919A
:10305000E3045091E40412161306140615065CF4FA
:10306000DA01C901880F991FAA1FBB1F0497A10588
:10307000B1055CF051C1AEEFBFEF0E94E3346430A4
:103080007105810591050CF047C1E63018F4E09315
:10309000CB0402C01092CB040E942E0E3DC130978B
:1030A00019F488E290E005C0E130F10539F484E6D6
:1030B00090E09093DC048093DB042EC1329709F0FA
:1030C0002BC137FF02C02F5F3F4F359527953093B7
:1030D000DC042093DB0420C1309719F41092890599
:1030E0001BC1319709F018C181E08093890514C193
:1030F0006091A504662309F40FC1E0938505209330
:103100000702809306024093050263E060938D05F9
:10311000E093E9043327890100581109012E000CBE
:10312000220B330B0093EA041093EB042093EC047E
:103130003093ED04552740585109052E000C660BBD
:10314000770B4093EE045093EF046093F004709378
:10315000F104992780589109092E000CAA0BBB0B8A
:103160008093F2049093F304A093F404B093F504D5
:103170001092F604D1C04AE0429FC001439F900DD7
:1031800011249F938F93FF93EF9381E08F930E947D
:1031900008060F900F900F900F900F90BDC0E13078
:1031A000F10511F461E004C0EF2B09F0B5C060E057
:1031B00085E40EC082E890E09093AD058093AC0565
:1031C00088E159D447C0E130F10521F461E087E19D
:1031D0007AD4A2C0EF2B09F09FC060E0F8CF3097FF
:1031E00011F486E317C0E130F10511F487E312C052
:1031F000E230F10511F488E30DC0E330F10511F47C
:103200008AE308C0E430F10511F48BE303C035977D
:1032100019F48CE387D5EC0184E690E09093AD053A
:103220008093AC05D093A0051092A105DD27D09323
:10323000A305C093A20570C01093AD050093AC0523
:103240006BC083E790E09093AD058093AC058091CF
:10325000860490E09093A1058093A0055DC00E9434
:103260002D2480912D06807F803709F055C0109362
:10327000AD050093AC05809144069091450680957C
:1032800090959093A0051092A10599279093A3057E
:103290008093A2058091330690E09093A5058093DA
:1032A000A4058091340690E09093A7058093A6052D
:1032B0008091310690E09093A9058093A8058091B4
:1032C000320690E09093AB058093AA0525C0843622
:1032D000910511F581E08F9384EF8F931F9288EC15
:1032E0008F9383E08F9398EE9F931F929AEF9F9313
:1032F00027E02F9320ED2F931F929F938F930E948F
:1033000008060C9400000DB71EB7035F1F4F0FB6E1
:10331000F8941EBF0FBE0DBFC1E001C0C0E0809198
:10332000A504882309F492C040910702242F30E0BD
:103330002138310524F0F901E058F10904C0E0E832
:10334000F0E0E21BF30B50910602652F70E061384C
:10335000710524F0CB018058910904C080E890E009
:10336000861B970B8E179F075CF42138310524F0DC
:10337000C9018058910904C080E890E0821B930B3A
:10338000A0910502EA2FF0E0E138F10534F0E058B1
:10339000F109E817F9074CF02AC000E810E07801BD
:1033A000EE1AFF0AE816F9062CF52138310524F04B
:1033B000C9018058910904C080E890E0821B930BFA
:1033C0006138710534F060587109681779074CF05D
:1033D0000CC0E0E8F0E08F01061B170B0817190777
:1033E0005CF4213831054CF003C0452F01C04A2F51
:1033F000419503C04A2F01C0452F4093F804209106
:103400008B0530918C058091860590918705820F00
:10341000931F873891054CF497FF02C080E090E03D
:10342000092E000CAA0BBB0B04C087E890E0A0E0BB
:10343000B0E08093AB049093AC04A093AD04B09340
:10344000AE0480918E0581110E949D06C1110C94DD
:10345000EA108FEF90E00C94EC1010928C05109213
:103460008B0585E08F938CED8F931F9286E9E0C8E2
:103470008FE08F9380EA8F931F9282E38F9387E090
:103480008F9380ED8F931F9284E68F9382E08F93CA
:103490000E9408061092CB048DB79EB709960FB60E
:1034A000F8949EBF0FBE8DBFA1C9DF91CF911F9130
:1034B0000F91FF90EF90DF90CF90BF90AF909F90D3
:1034C0008F907F906F900895CF92DF92EF92FF924E
:1034D0000F931F93CF93DF936C017A018B01C0E0B0
:1034E000D0E0CE15DF0589F0D8016D918D01D601B0
:1034F000ED91FC910190F081E02DC6011995892B89
:1035000011F47E0102C02196ECCFC701DF91CF916B
:103510001F910F91FF90EF90DF90CF900895FC01E5
:10352000A089B1898C91A689B78982FD0FC09C9131
:10353000818D8F5F8F73228D821749F0218DDF017E
:10354000A20FB11D5D969C93818F08958C91089573
:10355000FC01538D448D252F30E0842F90E0821B99
:10356000930B541710F0CF96089501970895FC011E
:10357000918D828D981761F0828DDF01A80FB11DAA
:103580005D968C91928D9F5F9F73928F90E00895CE
:103590008FEF9FEF0895FC01918D828D981731F088
:1035A000828DE80FF11D858D90E008958FEF9FEFDC
:1035B0000895FC01918D228D892F90E0805C9F4FB2
:1035C000821B91098F73992708958AE596E0F1DFB0
:1035D00021E0892B09F420E0822F089587EF96E0FF
:1035E000E8DF21E0892B09F420E0822F0895FC0117
:1035F000848DDF01A80FB11DA35ABF4F2C91848D7C
:1036000090E001968F739927848FA689B7892C93B0
:10361000A089B1898C9180648C93938D848D98134B
:1036200006C00288F389E02D80818F7D8083089514
:10363000EF92FF920F931F93CF93DF93EC0181E002
:10364000888F9B8D8C8D981305C0E889F9898081BE
:1036500085FD23C0F62E0B8D10E00F5F1F4F0F73FB
:103660001127E02E8C8DE8120BC00FB607FCFACFA5
:10367000E889F989808185FFF5CFCE01B8DFF2CFE7
:103680008B8DFE01E80FF11DE35AFF4FF0820B8F87
:10369000EA89FB898081806207C0EE89FF896083A7
:1036A000E889F98980818064808381E090E0DF91FE
:1036B000CF911F910F91FF90EF900895CF93DF93DB
:1036C000EC01888D8823C1F0EA89FB89808185FD22
:1036D00005C0A889B9898C9186FD0EC00FB607FC7C
:1036E000F5CF808185FFF2CFA889B9898C9185FFBC
:1036F000EDCFCE017CDFE8CFDF91CF91089580E060
:1037000090E0892B19F06ADF811120C080E090E001
:10371000892B19F05ADF81111CC080E090E0892BC1
:1037200041F080E090E0892B21F00E94000081119F
:1037300013C080E090E0892BA1F080E090E0892B1D
:1037400081F00E94000081110AC008950E940000CB
:10375000DDCF0E940000E1CF0E940000EACF0C9470
:103760000000089590E0FC013197E231F10508F086
:103770004EC08827E558FF4F8F4F0C94A536809197
:1037800080008F7703C0809180008F7D80938000C0
:10379000089580918000877FF9CF84B58F7702C02C
:1037A00084B58F7D84BD08958091B0008F7703C06C
:1037B0008091B0008F7D8093B0000895809190003B
:1037C0008F7707C0809190008F7D03C0809190001B
:1037D000877F8093900008958091A0008F7707C025
:1037E0008091A0008F7D03C08091A000877F80938F
:1037F000A0000895809120018F7707C0809120015B
:103800008F7D03C080912001877F809320010895E0
:103810003FB7F8948091270690912806A091290639
:10382000B0912A0626B5A89B05C02F3F19F0019636
:10383000A11DB11D3FBFBA2FA92F982F8827820F36
:10384000911DA11DB11DBC01CD0142E0660F771F86
:10385000881F991F4A95D1F7089585ED8093BC0084
:103860008091BC0084FDFCCF1092FC05089540912E
:10387000D605262F30E0240F311D21323105DCF42E
:103880002091FC052430C9F4FC0180E090E086170B
:1038900058F43091D6052191DC01AC54BA4FA30FF6
:1038A000B11D2C930196F3CF8091D605680F6093DC
:1038B000D60580E0089581E0089582E00895089596
:1038C0008FEF9FEF08958FEF9FEF08958091B305DD
:1038D00090E09195819591090895CF93DF931F9280
:1038E0001F92CDB7DEB7CB01642F49835A83BFDF68
:1038F0004981842F5A81952F0F900F90DF91CF919E
:103900000895CF93DF931F92CDB7DEB7698361E04F
:10391000CE010196ACDF81E090E00F90DF91CF9176
:103920000895089580E090E008950E94B9361F92AE
:103930000F920FB60F9211240BB60F922F933F9355
:103940004F935F936F937F938F939F93AF93BF93A7
:10395000EF93FF938AE596E04ADEFF91EF91BF91E6
:10396000AF919F918F917F916F915F914F913F9117
:103970002F910F900BBE0F900FBE0F901F901895B8
:103980001F920F920FB60F9211240BB60F922F9326
:103990003F934F935F936F937F938F939F93AF93D7
:1039A000BF93EF93FF938AE596E0B9DDFF91EF9126
:1039B000BF91AF919F918F917F916F915F914F9147
:1039C0003F912F910F900BBE0F900FBE0F901F9045
:1039D00018951F920F920FB60F9211240BB60F92EB
:1039E0002F933F934F935F936F937F938F939F9307
:1039F000AF93BF93EF93FF9387EF96E0F8DDFF91CE
:103A0000EF91BF91AF919F918F917F916F915F9156
:103A10004F913F912F910F900BBE0F900FBE0F90C3
:103A20001F9018951F920F920FB60F9211240BB68C
:103A30000F922F933F934F935F936F937F938F9347
:103A40009F93AF93BF93EF93FF9387EF96E067DD6C
:103A5000FF91EF91BF91AF919F918F917F916F9166
:103A60005F914F913F912F910F900BBE0F900FBE22
:103A70000F901F901895CF93DF93282F30E0F90116
:103A8000EE57FA4F8491F901E45CFA4FD491F901B1
:103A9000EA50FB4FC491CC2389F0811163DEEC2FF7
:103AA000F0E0EE0FFF1FE452FB4FA591B491EC91B3
:103AB000ED2381E090E021F480E002C080E090E01E
:103AC000DF91CF9108951F93CF93DF93282F30E09C
:103AD000F901EE57FA4F8491F901E45CFA4FD49161
:103AE000F901EA50FB4FC491CC23C1F0162F81118C
:103AF00039DEEC2FF0E0EE0FFF1FEE53FB4FA591E8
:103B0000B4918FB7F894111105C09C91ED2FE095F9
:103B1000E92302C0EC91ED2BEC938FBFDF91CF91A5
:103B20001F910895AF92BF92CF92DF92EF92FF92D2
:103B30000F931F93CF93DF935C017B016A018C018C
:103B400002551A4FD8018C9187FF04C0FB011182E6
:103B5000108236C02CE02A9DC0012B9D900D1124AF
:103B6000D8014C912C91BC01620F711D27FD7A95F3
:103B70002091440930E06217730714F5840F911DFA
:103B800047FD9A9529E0289FE001299FD00D112437
:103B9000CC56D84F888186FF13C060E08F7393DFC7
:103BA0002D813E811216130634F589819A81280FE2
:103BB000391F3A8329838B819C812817390748F55F
:103BC000F80180818F5F80838CE08A9D90018B9DBE
:103BD000300D11248081A901480F511D87FD5A9590
:103BE0008091440990E0481759070CF03FC080814C
:103BF0008C30A4F03BC02115310511F389819A81E5
:103C0000280F391F3A8329838B819C818217930760
:103C1000B8F29A8389831E821D82D2CF8081280FB9
:103C2000311D87FD3A95F7014081518189E0829FDE
:103C3000F001839FF00D1124EC56F84F81819281A1
:103C4000840F951FD60111969C938E93808186FFD9
:103C500022C061E08F73DF91CF911F910F91FF9090
:103C6000EF90DF90CF90BF90AF902DCFF701808184
:103C70009181049680349C4918F480E49CE904C046
:103C8000F701808191810496D60111969C938E93C1
:103C90008FEFF8018083DF91CF911F910F91FF90FB
:103CA000EF90DF90CF90BF90AF900895CF93DF93C8
:103CB00090E0FC01E45CFA4F2491FC01EA50FB4FD8
:103CC0008491882361F190E0880F991FFC01E855E9
:103CD000FB4FC591D491FC01EE53FB4FA591B491DC
:103CE000611109C09FB7F894888120958223888349
:103CF000EC912E230BC0623061F49FB7F8943881A9
:103D0000822F809583238883EC912E2B2C939FBF49
:103D100006C08FB7F894E8812E2B28838FBFDF91E0
:103D2000CF910895863308F0865390917B00282F19
:103D30002870977F922B90937B008770806480938C
:103D40007C0080917A00806480937A0080917A0070
:103D500086FDFCCF809178002091790090E0922B35
:103D600008958F929F92AF92BF92CF92DF92EF927F
:103D7000FF926B017C014CDD4B015C01C114D1044D
:103D8000E104F104E9F044DDDC01CB018819990973
:103D9000AA09BB09883E9340A105B10578F321E04B
:103DA000C21AD108E108F10888EE880E83E0981E57
:103DB000A11CB11CC114D104E104F10421F7DECF30
:103DC000FF90EF90DF90CF90BF90AF909F908F903B
:103DD00008952FB7F894609123067091240680917E
:103DE0002506909126062FBF08951F920F920FB6B9
:103DF0000F9211242F933F938F939F93AF93BF9371
:103E00008091230690912406A0912506B091260664
:103E10003091220623E0230F2D3720F40196A11DB7
:103E2000B11D05C026E8230F0296A11DB11D2093E8
:103E300022068093230690932406A0932506B09330
:103E400026068091270690912806A0912906B09118
:103E50002A060196A11DB11D80932706909328067E
:103E6000A0932906B0932A06BF91AF919F918F919D
:103E70003F912F910F900FBE0F901F9018951F929A
:103E80000F920FB60F9211240BB60F922F933F9300
:103E90004F935F936F937F938F939F93AF93BF9352
:103EA000EF93FF938091B900887F803609F49CC01E
:103EB00068F5883209F45BC090F4803109F454C08D
:103EC00038F4882309F4F6C0883009F44DC0F5C0F1
:103ED000883109F44CC0803209F45DC0EEC08034F2
:103EE00009F468C048F4803309F455C0883309F0F8
:103EF000E4C08093FB05D8C0803509F44FC08835F5
:103F000009F45DC0883409F0D8C0D6C0883909F4F6
:103F1000C7C0A8F4883709F467C038F4883609F4B4
:103F200063C0803709F460C0C8C0883809F4B8C0DD
:103F3000803909F45FC0803809F0BFC05BC0803BA6
:103F400009F486C038F4803A09F466C0883A09F466
:103F50007FC0B3C0803C09F4A7C0883C09F4A4C06A
:103F6000883B09F48AC0A9C08091210610C09091B5
:103F7000200680911F06981770F5E091200681E0D9
:103F80008E0F80932006F0E0E150FA4F80818093FD
:103F9000BB0085EC86C08093FB058EC0E0912006B7
:103FA00081E08E0F809320068091BB00F0E0E1500D
:103FB000FA4F80839091200680911F066EC0E09199
:103FC000200681E08E0F809320068091BB00F0E0F8
:103FD000E150FA4F80838091FE0581116DC081E030
:103FE0008093FD0584EA61C083E08093FC05109214
:103FF000FA05CFCF8091FA05803208F051C0E091E8
:10400000FA0581E08E0F8093FA058091BB00F0E005
:10401000E652FA4F8083BDCF85EC8093BC001092AE
:10402000FC058091FA05803230F4E091FA05F0E069
:10403000E652FA4F10826091FA0570E0E091D805DF
:10404000F091D9058AED95E019951092FA0535C0E1
:1040500084E08093FC051092D7051092D605E0917C
:10406000D405F091D50519958091D605811105C02B
:1040700081E08093D6051092B405E091D70581E0E8
:104080008E0F8093D705F0E0EC54FA4F8081809337
:10409000BB009091D7058091D605981708F479CF89
:1040A00085E88093BC0009C085EC8093BC00109229
:1040B000FC0503C01092FB05D0DBFF91EF91BF918F
:1040C000AF919F918F917F916F915F914F913F91B0
:1040D0002F910F900BBE0F900FBE0F901F90189551
:1040E000CF92DF92EF92FF920F931F93CF93DF93C4
:1040F0003FB79091B205992309F47DC091509093F8
:10410000B205911178C0CB010A9664E170E00E947B
:104110007E368B01672B19F480E099E05DC020E0CA
:1041200049E080914409281708F065C0E22EF12C7F
:104130004E9DF0014F9DF00D1124EC56F84F8781F4
:1041400090858F3F5FEF950769F1508156FF2AC038
:10415000618172816817790729F1F894C781D08548
:10416000D483C383C180D280CE018C199D09B8014C
:104170000E9492366115710519F07683658311C02E
:10418000CC16DD0618F08FEF9FEF02C081E090E0C3
:104190004E9DF0014F9DF00D1124EC56F84F968383
:1041A00085833FBF2F5FBDCF482F50E0949FF00124
:1041B000959FF00D1124EC56F84F678170856F3F85
:1041C0007F4F79F4949FF001959FF00D1124EC56E8
:1041D000F84F168215828F5F20914409821720F3D1
:1041E0000AC0208126FFEECFF89467817085728324
:1041F00061833FBFE7CFDF91CF911F910F91FF9078
:10420000EF90DF90CF9008958091B205882321F040
:104210008F5F8093B205089520914409E4E9F7E0A7
:1042200090E04FEF5FEF921799F3508747839F5FBE
:104230003996F9CFFC019281903308F03FC080811C
:1042400028E830E0281B310987FD3395220F331F02
:10425000220F331F621773077CF0818128E532E05B
:10426000281B310987FD3395220F331F220F331F7F
:10427000621773070CF49B0122503109220F331F80
:104280004091B205892F90E0442359F049E0489FBE
:10429000F001499FF00D1124EC56F84F3087278329
:1042A00008954FB7F89459E0589FF001599FF00DC9
:1042B0001124EC56F84F328321834FBF08951F938A
:1042C000CF93DF93EC01162F8A81803308F048C02A
:1042D00061E0812FEBDC8A8199E0899FF001112454
:1042E000EC56F84F1F739081907C192B1083188225
:1042F00019826CE00E9472369CE0899FA001112413
:1043000020E030E099E0B901640F751F969FF0013D
:10431000979FF00D1124EC56F84F608166FD16C092
:104320002F5F3F4F2C30310571F78130F1F410923F
:10433000800082E0809381001092850010928400BA
:10434000B19A80916F00826080936F00EA8189E06A
:10435000E89FF0011124EC56F84F8081806480833F
:104360008A81DF91CF911F910895823061F410927C
:10437000900080939100109295001092940088BB59
:1043800080937100E3CF833069F41092A00082E043
:104390008093A1001092A5001092A40089BB809385
:1043A0007200D4CF8111D2CF1092200182E080938D
:1043B000210110922501109224018ABB8093730081
:1043C000C5CF1F920F920FB60F9211240BB60F920A
:1043D0002F933F934F935F936F937F938F939F930D
:1043E000AF93BF93EF93FF9348E251E064E271E033
:1043F00080E090E097DBFF91EF91BF91AF919F91AB
:104400008F917F916F915F914F913F912F910F907D
:104410000BBE0F900FBE0F901F9018951F920F921A
:104420000FB60F9211240BB60F922F933F934F9319
:104430005F936F937F938F939F93AF93BF93EF930C
:10444000FF9348EA50E064EA70E083E090E06ADBC2
:10445000FF91EF91BF91AF919F918F917F916F915C
:104460005F914F913F912F910F900BBE0F900FBE18
:104470000F901F9018951F920F920FB60F92112454
:104480000BB60F922F933F934F935F936F937F934E
:104490008F939F93AF93BF93EF93FF9348E950E0BF
:1044A00064E970E082E090E03DDBFF91EF91BF9125
:1044B000AF919F918F917F916F915F914F913F91BC
:1044C0002F910F900BBE0F900FBE0F901F9018955D
:1044D0001F920F920FB60F9211240BB60F922F93CB
:1044E0003F934F935F936F937F938F939F93AF937C
:1044F000BF93EF93FF9348E850E064E870E081E0F9
:1045000090E010DBFF91EF91BF91AF919F918F9160
:104510007F916F915F914F913F912F910F900BBEC3
:104520000F900FBE0F901F901895FC01A089B189C4
:1045300082E08C93A485B5851C92A685B78583E31C
:104540008C93108EA489B58986E08C93A289B38957
:104550008C9180618C93A289B3898C9188608C93B3
:10456000A289B3898C9180688C930288F389E02DAD
:1045700080818F7D80830895682F8AE596E058C8F2
:10458000009769F0FC0101900020E9F73197AF0135
:10459000481B590BBC0187EF96E00C94641A80E02D
:1045A00090E008958F929F92AF92BF920F931F93C6
:1045B000CF93DF93CDB7DEB7A1970FB6F894DEBFE8
:1045C0000FBECDBF19A2423008F44AE08E010F5D44
:1045D0001F4F842E912CA12CB12CA50194010E9477
:1045E000E734E62FB901CA0101501109EA3014F489
:1045F000E05D01C0E95CD801EC93232B242B252B33
:1046000061F7C801BDDFA1960FB6F894DEBF0FBEFB
:10461000CDBFDF91CF911F910F91BF90AF909F9031
:104620008F900895CF92DF92EF92FF92CF93DF9316
:1046300097FF20C06B017C01E091F706F091F8062E
:104640000190F081E02D6DE287EF96E01995EC0185
:1046500066277727CB016C197D098E099F094AE0EF
:10466000A1DF8C0F9D1FDF91CF91FF90EF90DF9026
:10467000CF9008954AE0DF91CF91FF90EF90DF90C7
:10468000CF9090CF7DCF9FB7F894ACE2B6E09196F3
:10469000ED91FC919297208190968C91822B808352
:1046A0009FBF08959FB7F894ACE2B6E05E96ED9197
:1046B000FC915F9720815D968C91822B80839FBFB8
:1046C00008959FB7F894ACE2B6E05B96ED91FC914B
:1046D0005C9720815A968C91822B80839FBF08958E
:1046E0008F929F92AF92BF92CF92DF92EF92FF9202
:1046F0000F931F93CF93DF93C0E0D0E010E0E82E3C
:10470000880FFF088BE0C82ED12C812C912C5401EE
:1047100083940C2FC7010C2E02C0959587950A949F
:10472000E2F780FF02C0BEDF0DC02FB7F894E09122
:104730004A06F0914B069081809149068095892325
:1047400080832FBF2FB7F894E0914706F091480679
:104750009081809146068095892380832FBFC60172
:104760000197F1F7E0915006F09151069081809108
:104770004F06892351F0D501C40104C0880F991F49
:10478000AA1FBB1F0A95D2F7182B9BDF2196C830B2
:10479000D10509F0BECF86DF87E090E00197F1F701
:1047A000812FDF91CF911F910F91FF90EF90DF90BC
:1047B000CF90BF90AF909F908F9008952FB7F894AF
:1047C000ACE2B6E09196ED91FC9192979081909633
:1047D0008C918095892380832FBF0895EF92FF925B
:1047E0000F931F93CF93DF937C01C62FE7DF8701E1
:1047F000D0E0C8018E199F098C179D072CF4F80191
:1048000081918F016DDFF5CF3EDF6091560670E03C
:1048100080E090E0DF91CF911F910F91FF90EF909A
:10482000A0CA65E088E292E0D9DF69E08FE192E01A
:10483000D5DF80915806882321F065E08AE192E077
:10484000CDDF80915906882321F069E081E192E073
:10485000C5DF69E088E092E0C1CF6F927F928F92CE
:104860009F92AF92BF92CF92DF92EF92FF921F93EF
:10487000CF93DF93CDB7DEB729970FB6F894DEBF9D
:104880000FBECDBFA6DAC0905206D0905306E0907E
:104890005406F09055066C197D098E099F090E94F7
:1048A000AD356B017C0120E030E84BEB54E40E9415
:1048B0005F3618160CF4B5DF6091560670E080E0A4
:1048C00090E00E94AF354B015C019B01AC01C70138
:1048D000B6010E947D3587FF09C0A7019601C50179
:1048E000B4010E9418350E9481353BDACE01019651
:1048F0007C0189E0F70111928A95E9F781E08983CB
:1049000082E48A8315E027E0C22ED12C5E01FAE012
:10491000AF0EB11CC7DED5DE51DFC6010197F1F73E
:1049200047019CE2692E96E0792EF40181914F01B6
:10493000D7DEF30181933F018A149B04B1F7809184
:104940002D06893739F09FDE80912D06807F8037D4
:1049500081F419C085E3882E86E0982E80E0C0DEC1
:10496000F40181934F01F1E48F16F6E09F06B1F751
:10497000EACF57DF6091560670E080E090E0F1D911
:10498000115009F0C7CF80912D06807F803739F014
:10499000809156068A3018F48F5F80935606809176
:1049A0004406909145069093430680934206809179
:1049B0002F0690913006909345068093440609DABD
:1049C0006093520670935306809354069093550655
:1049D00029960FB6F894DEBF0FBECDBFDF91CF9101
:1049E0001F91FF90EF90DF90CF90BF90AF909F907E
:1049F0008F907F906F9008950F931F93CF93DF93C5
:104A00008C01C0E0D0E0F801EC0FFD1F649166233B
:104A100071F0E091F706F091F8060190F081E02D39
:104A200087EF96E01995892B11F02196ECCFCE01F6
:104A3000DF91CF911F910F910895CF93DF93DCDF2A
:104A4000EC018BEF92E09CDD8C0F9D1FDF91CF91ED
:104A50000895CF93DF9394DDEC018BEF92E090DD2E
:104A60008C0F9D1FDF91CF910895682F70E080E03B
:104A700090E04AE097CDBC01990F880B990BD2CDFD
:104A8000CF92DF92EF92FF920F931F93CF93DF931A
:104A9000EC018B018BE799E0B7DB003282E018076D
:104AA0000CF03DC017FD06C0053B11052CF004EBD2
:104AB00010E002C000E010E0888128E830E06901E1
:104AC000C81AD10887FDD394CC0CDD1CCC0CDD1C9E
:104AD0000D2C000CEE08FF08898128E532E0281B28
:104AE000310987FD3395220F331F220F331FC90170
:104AF000330FAA0BBB0B9C01AD012C193D094E09CC
:104B00005F09D8010E94E13424EB30E040E050E03E
:104B10000E94BB34C20ED31EE41EF51E8601B801EE
:104B2000CE0188DB64EF71E08BE799E0DF91CF91F4
:104B30001F910F91FF90EF90DF90CF90D1CACF924D
:104B4000DF92EF92FF920F931F93CF9304E917E048
:104B5000C0E0CC24CA94DC2CEC2CF12C80914409CC
:104B6000C817B8F4C831A9F0C0FE0BC0F8018581A0
:104B70009681892B31F061E070E080E090E0F1D81F
:104B8000F5CFF694E794D794C794CF5F075F1F4F94
:104B9000E5CFCF911F910F91FF90EF90DF90CF90D5
:104BA0000895BC012091440630914506A901409525
:104BB00050954823592391E0452B09F490E040910A
:104BC000420650914306242735272623372381E0C8
:104BD000232B09F480E0892308950F931F93CF932B
:104BE000DF9305E419E0C0E0D0E0FE01EC52FA4F9B
:104BF000649170E0C80163DBFE01E253FA4F6491F7
:104C000070E0C80103965BDBFE01E853FA4F649144
:104C100070E0C801069653DB2196075F1F4FC63030
:104C2000D10519F781E080933A04DF91CF911F916C
:104C30000F910895CF93DF93CDB7DEB7CC55D1094F
:104C40000FB6F894DEBF0FBECDBF789484B58260F6
:104C500084BD84B5816084BD85B5826085BD85B520
:104C6000816085BD80916E00816080936E0010929E
:104C70008100809181008260809381008091810019
:104C800081608093810080918000816080938000AA
:104C90008091B10084608093B1008091B000816008
:104CA0008093B00080919100826080939100809108
:104CB0009100816080939100809190008160809349
:104CC00090008091A10082608093A1008091A1005A
:104CD00081608093A1008091A00081608093A000FA
:104CE0008091210182608093210180912101816066
:104CF0008093210180912001816080932001809127
:104D00007A00846080937A0080917A008260809338
:104D10007A0080917A00816080937A0080917A0095
:104D2000806880937A001092C10081E08093FD0436
:104D30001092870487EF96E0F8DB10923A04109205
:104D4000A0041092A1040E94990F6AE070E080E034
:104D500090E007D81092730520E0822F90E0880F32
:104D6000991FFC01EC52FE4F45915491FC01E25910
:104D7000FB4F51834083FC01E052FE4F459154911B
:104D8000FC01EB59FA4F51834083FC01E853FE4F7D
:104D900045915491FC01E658FB4F518340832F5FAE
:104DA0002630D9F6209371058FEF8093E904809324
:104DB000FE041092A7041092A8041092A904109265
:104DC000AA041092AB041092AC041092AD0410929D
:104DD000AE041092AF041092B0041092B10410927D
:104DE000B2041092BF041092C0041092C104109239
:104DF000C2041092C3041092C4041092C50410920D
:104E0000C6041092C7041092C8041092C9041092EC
:104E1000CA041092B3041092B4041092B504109214
:104E2000B6041092B7041092B8041092B90410920C
:104E3000BA041092BB041092BC041092BD041092EC
:104E4000BE041092CB041092F70482E390E090939A
:104E5000DC048093DB041092FB0481E08093CC049B
:104E60000E942E0E80E092E00E94BD0486E990E050
:104E700090930405809303051092A5041092FC04FE
:104E800061E086E10E94561E6091730586E10E94F2
:104E9000631D0AE010E061E086E10E94631D69E1A4
:104EA00070E080E090E00E94B11E60E086E10E9428
:104EB000631D69E170E080E090E00E94B11E015046
:104EC000110949F70E94E91E6093740570937505F6
:104ED000809376059093770580E092E00E94CC0F56
:104EE00010917305612F86E10E94631D8091A604D5
:104EF000882331F081E0612F68276093730502C039
:104F0000109273059091A10491110C944833E4EE32
:104F1000F1E0259134914091690550916A0542175D
:104F2000530709F039C0E0EEF1E02591349140914A
:104F30006505509166054217530771F5E6EEF1E0FD
:104F40002591349140916B0550916C0542175307A0
:104F500019F5E2EEF1E02591349140916705509109
:104F6000680542175307C1F4E8EEF1E0259134914A
:104F700040916D0550916E054217530769F4EAEEB2
:104F8000F1E02591349191E040916F0550917005C9
:104F90004217530709F090E09093FF048091E904D1
:104FA000863008F05FC02091FE04821719F191113C
:104FB00089C0822F90E0880F991FFC01EC52FE4FB0
:104FC00025913491FC01E259FB4F31832083FC0190
:104FD000E052FE4F25913491FC01EB59FA4F318399
:104FE0002083FC01E853FE4F25913491FC01E658E3
:104FF000FB4F35C09091F604911166C090E0880F88
:10500000991FFC01E052FE4F45915491FC01EB5970
:10501000FA4F2091EE043091EF04240F351F3183B5
:105020002083FC01EC52FE4F45915491FC01E25962
:10503000FB4F2091EA043091EB04240F351F31839C
:105040002083FC01E853FE4F45915491FC01E65842
:10505000FB4F2091F2043091F304240F351F31836C
:10506000208332C0992331F08091FE048F3F61F19B
:105070008FEF28C020E0E22FF0E0CF01880F991FCA
:10508000FC01EC52FE4F45915491FC01E259FB4F5B
:1050900051834083FC01E052FE4F45915491FC0145
:1050A000EB59FA4F51834083FC01E853FE4F459181
:1050B0005491FC01E658FB4F518340832F5F26300B
:1050C000D1F6D2CF8093FE0480918604811104C072
:1050D0008091FB04882321F081E08093720560C0F9
:1050E0008091DD049091DE04A091DF04B091E00492
:1050F000B7FF07C0B095A095909581959F4FAF4F92
:10510000BF4F0597A105B10574F58091E504909115
:10511000E604A091E704B091E804B7FF07C0B0959A
:10512000A095909581959F4FAF4FBF4F0597A105D3
:10513000B105CCF44091E1045091E2046091E304A4
:105140007091E40477FF07C0709560955095419584
:105150005F4F6F4F7F4F81E045305105610571050D
:105160001CF480E001C081E080937205811118C0B9
:105170001092DD041092DE041092DF041092E0041D
:105180001092E5041092E6041092E7041092E804ED
:105190001092E1041092E2041092E3041092E404ED
:1051A0008091CC04282F30E038AF2FAB30907205BF
:1051B0009090D004392D3170232E0091CF0410E04F
:1051C000A801415051095EAF4DAF4090DD045090B1
:1051D000DE046090DF047090E00466277727CB013F
:1051E000641975098609970923966CAF7DAF8EAF58
:1051F0009FAF2397C090D204D12CE12CF12CA0902A
:10520000DB04B090DC042DEFA5012403B001259F41
:10521000700D11247AA769A78091D40490E0DC0175
:105220001396BCA7ABA72091E5043091E60440910A
:10523000E7045091E8042D8B3E8B4F8B588F50958F
:105240004095309521953F4F4F4F5F4F27962CAF9C
:105250003DAF4EAF5FAF27974091E1045091E2041C
:105260006091E3047091E404498F5A8F6B8F7C8FB7
:1052700070956095509541955F4F6F4F7F4F2B967E
:105280004CAF5DAF6EAF7FAF2B9761E070E0601BFE
:10529000710B2D967FAF6EAF2D97C301B20122E047
:1052A00030E040E050E00E94BB3488279927DC01C1
:1052B000821B930BA40BB50B61968CAF9DAFAEAF69
:1052C000BFAF6197C501B7FC0196959587959195FC
:1052D000819591099C01990F440B550B2DA73EA771
:1052E0004FA758AB6D897E898F89988D22E030E079
:1052F00040E050E00E94BB3429A33AA34BA35CA337
:1053000050954095309521953F4F4F4F5F4F659693
:105310002CAF3DAF4EAF5FAF6597698D7A8D8B8DAA
:105320009C8D22E030E040E050E00E94BB342DA391
:105330003EA34FA358A750954095309521953F4FD8
:105340004F4F5F4F69962CAF3DAF4EAF5FAF699740
:1053500042E050E0401B510B6B965FAF4EAF6B9736
:10536000C301B20122E030E040E050E00E94BB34D3
:105370002BAB3CAB4DAB5EAB8091D104682F70E0A2
:105380007AAB69AB601B710B6D967FAF6EAF6D979B
:105390008091D304282F30E040E050E02D8F3E8FE5
:1053A0004F8F58A3B194A194B108A501BB0C660B13
:1053B000770B49AF5AAF6BAF7CAF812CF6E08F16FD
:1053C00009F431C2082D10E0F801EB55FB4F80A91C
:1053D0006FA978AD681B7109CB01000F111F000F79
:1053E000111F332039F0222009F465C0009709F01D
:1053F00068C044C0009709F064C0F801E35EFA4F4A
:10540000408151816281738177FF07C070956095FB
:10541000509541955F4F6F4F7F4F43305105610568
:10542000710564F5F801EB5CFA4F408151816281AE
:10543000738177FF07C070956095509541955F4FD8
:105440006F4F7F4F4330510561057105BCF4F80182
:10545000EB5FFA4F408151816281738177FF07C012
:1054600070956095509541955F4F6F4F7F4F4330DA
:1054700051056105710514F40C94F033F801E35EF5
:10548000FA4F1082118212821382F801E35BFA4F05
:1054900089AD9AADABADBCAD80839183A283B3835C
:1054A000F801EB5CFA4F1082118212821382F8012C
:1054B000EB5FFA4F5DC1A2E09A1207C00097B1F00E
:1054C0005BC032E0931609F457C0B2E0B91508F09A
:1054D0004FC08F3FEFEF9E0731F02DAD3EAD8217ED
:1054E000930709F049C0332009F446C0A801435E80
:1054F0005A4F5A0123966CAD7DAD8EAD9FAD23976B
:10550000A70196010E94BB34D5012D933D934D9385
:105510005C931397F801E35BFA4F89A59AA56BA5F5
:105520007CA50E949236CB01770FAA0BBB0B808320
:105530009183A283B383F801EB5CFA4F5F01279656
:105540006CAD7DAD8EAD9FAD2797A70196010E94F2
:10555000BB34D5012D933D934D935C9313970B5F13
:105560001A4F2B966CAD7DAD8EAD9FAD2B974BC07A
:10557000F1E0F91508F0C3C08130910541F02D9696
:105580002EAD3FAD2D978217930709F042C033200F
:1055900009F43FC0A801435E5A4F5A01C301B2014A
:1055A000A70196010E94BB34D5012D933D934D93E5
:1055B0005C931397F801E35BFA4F89A59AA56BA555
:1055C0007CA50E949236CB01770FAA0BBB0B808380
:1055D0009183A283B383F801EB5CFA4F5F016D897D
:1055E0007E898F89988DA70196010E94BB34D501D1
:1055F0002D933D934D935C9313970B5F1A4F698DD9
:105600007A8D8B8D9C8DA70196010E94BB34F80189
:1056100038C0F5E09F1273C08E3F2FEF9207B1F5AF
:10562000332009F471C0F801E35EFA4F61964CAD86
:105630005DAD6EAD7FAD61974083518362837383AF
:10564000F801E35BFA4F6DA57EA58FA598A960834D
:10565000718382839383F801EB5CFA4F65968CAD7E
:105660009DADAEADBFAD659780839183A283B383BB
:10567000F801EB5FFA4F69962CAD3DAD4EAD5FADD5
:1056800069972083318342835383CBC08230910555
:1056900039F06B964EAD5FAD6B978417950779F532
:1056A000332069F1F801E35EFA4F6BA97CA98DA95B
:1056B0009EA96083718382839383F801E35BFA4F31
:1056C0008DA59EA5AFA5B8A980839183A283B3833E
:1056D000F801EB5CFA4F29A13AA14BA15CA1208310
:1056E000318342835383F801EB5FFA4F4DA15EA1F2
:1056F0006FA178A5408351836283738392C069A9A7
:105700007AA98617970739F06D96AEADBFAD6D9744
:105710008A179B0791F5F801E35BFA4F808191812D
:10572000A281B381B7FF29C0D801A35EBA4F2BA9CC
:105730003CA94DA95EA92D933D934D935C9313977E
:10574000D801AB5CBA4F49A15AA16BA17CA14D9382
:105750005D936D937C931397D801AB5FBA4F6DA1A6
:105760007EA18FA198A56D937D938D939C931397A4
:10577000108211821282138254C0C801835E9A4F34
:105780005C01C301B2012D8D3E8D4F8D58A10E9449
:10579000BB34F50180819181A281B381821B930B7F
:1057A000A40BB50B80839183A283B383F801E35BE1
:1057B000FA4F108211821282138298012B5C3A4FA9
:1057C00059016D897E898F89988D2D8D3E8D4F8DE4
:1057D00058A10E94BB34F50180819181A281B381DF
:1057E000821B930BA40BB50B80839183A283B3839D
:1057F0000B5F1A4F698D7A8D8B8D9C8D2D8D3E8D13
:105800004F8D58A10E94BB34F80180819181A28103
:10581000B381821B930BA40BB50B80839183A2836E
:10582000B3838394CBCD809271058091CC048F5F3C
:105830008093CC049091CF04981718F481E0809362
:10584000CC048091FB04882319F081508093FB04E1
:1058500010929C0410929D0410929E0410929F043A
:10586000109298041092990410929A0410929B043A
:10587000109294041092950410929604109297043A
:10588000109290041092910410929204109293043A
:1058900010928C0410928D0410928E0410928F043A
:1058A000109288041092890410928A0410928B043A
:1058B0008091F704882309F472C22091870422237F
:1058C00009F470C077FE08C07094609450944094BE
:1058D000411C511C611C711C35E0431651046104CC
:1058E000710444F58D899E89AF89B88DB7FF07C0D3
:1058F000B095A095909581959F4FAF4FBF4F05975D
:10590000A105B105BCF4898D9A8DAB8DBC8DB7FF17
:1059100007C0B095A095909581959F4FAF4FBF4F11
:105920000597A105B10534F48091FB04811102C0F3
:1059300020918604209372058EED92E00E9442230E
:105940008091860490E097D883E993E00E944223F7
:105950006091DD047091DE048091DF049091E00499
:105960000E94122381EE92E00E9442236091E104A2
:105970007091E2048091E3049091E4040E94122368
:1059800081EE92E00E9442236091E5047091E6046A
:105990008091E7049091E8040E94122383EE92E044
:1059A0000E94422310927105C090710542E04C158F
:1059B00008F45DC08C2D90E0BC01660F771FFB01E1
:1059C000E052FE4F25913491FB01EB59FA4FE080F4
:1059D000F180E21AF30A8701FF0C220B330B880FC8
:1059E000991F880F991FFC01E35BFA4F808091801B
:1059F000A280B38078018901E80CF91C0A1D1B1DE7
:105A0000FB01E658FB4F80809180092C000CAA080E
:105A1000BB08FC01EB5CFA4F4080518062807380D0
:105A2000A5019401240D351D461D571DFB01E259AA
:105A3000FB4F608171817195619571094B01770F01
:105A4000AA08BB08FC01E35EFA4F80819181A28124
:105A5000B381BC01CD01680D791D8A1D9B1D0E947B
:105A6000F60C809171058F5F809371059DCF83E067
:105A700080937105C090710555E05C1508F458C01D
:105A80008C2D90E0BC01660F771FFB01E052FE4FAA
:105A900025913491FB01EB59FA4FE080F180E21A35
:105AA000F30A8701FF0C220B330B880F991F880F15
:105AB000991FFC01E35BFA4F80809180A280B38044
:105AC00078018901E80CF91C0A1D1B1DFB01E65831
:105AD000FB4F80809180092C000CAA08BB08FC01B8
